{
  "_format": "hh-sol-artifact-1",
  "contractName": "SwapAgent",
  "sourceName": "contracts/SwapAgent.sol",
  "abi": [
    {
      "inputs": [],
      "stateMutability": "nonpayable",
      "type": "constructor"
    },
    {
      "anonymous": false,
      "inputs": [
        {
          "indexed": true,
          "internalType": "address",
          "name": "user",
          "type": "address"
        },
        {
          "indexed": false,
          "internalType": "uint256",
          "name": "amount",
          "type": "uint256"
        },
        {
          "indexed": false,
          "internalType": "string",
          "name": "targetChain",
          "type": "string"
        }
      ],
      "name": "SwapExecuted",
      "type": "event"
    },
    {
      "inputs": [],
      "name": "owner",
      "outputs": [
        {
          "internalType": "address",
          "name": "",
          "type": "address"
        }
      ],
      "stateMutability": "view",
      "type": "function"
    },
    {
      "inputs": [
        {
          "internalType": "uint256",
          "name": "amount",
          "type": "uint256"
        },
        {
          "internalType": "string",
          "name": "targetChain",
          "type": "string"
        }
      ],
      "name": "swapTokens",
      "outputs": [],
      "stateMutability": "nonpayable",
      "type": "function"
    }
  ],
  "bytecode": "0x608060405234801561001057600080fd5b50336000806101000a81548173ffffffffffffffffffffffffffffffffffffffff021916908373ffffffffffffffffffffffffffffffffffffffff16021790555061048b806100606000396000f3fe608060405234801561001057600080fd5b50600436106100365760003560e01c80632811c47b1461003b5780638da5cb5b14610057575b600080fd5b610055600480360381019061005091906101ad565b610075565b005b61005f61010c565b60405161006c9190610298565b60405180910390f35b600082116100b8576040517f08c379a00000000000000000000000000000000000000000000000000000000081526004016100af906102b3565b60405180910390fd5b3373ffffffffffffffffffffffffffffffffffffffff167f634d3fd2da100f83549e21005d319459cdf2552f28405042d35b58f45d5e2d8783836040516101009291906102d3565b60405180910390a25050565b60008054906101000a900473ffffffffffffffffffffffffffffffffffffffff1681565b600061014361013e84610334565b610303565b90508281526020810184848401111561015b57600080fd5b6101668482856103bc565b509392505050565b600082601f83011261017f57600080fd5b813561018f848260208601610130565b91505092915050565b6000813590506101a78161043e565b92915050565b600080604083850312156101c057600080fd5b60006101ce85828601610198565b925050602083013567ffffffffffffffff8111156101eb57600080fd5b6101f78582860161016e565b9150509250929050565b61020a81610380565b82525050565b600061021b82610364565b610225818561036f565b93506102358185602086016103cb565b61023e8161042d565b840191505092915050565b600061025660208361036f565b91507f416d6f756e74206d7573742062652067726561746572207468616e207a65726f6000830152602082019050919050565b610292816103b2565b82525050565b60006020820190506102ad6000830184610201565b92915050565b600060208201905081810360008301526102cc81610249565b9050919050565b60006040820190506102e86000830185610289565b81810360208301526102fa8184610210565b90509392505050565b6000604051905081810181811067ffffffffffffffff8211171561032a576103296103fe565b5b8060405250919050565b600067ffffffffffffffff82111561034f5761034e6103fe565b5b601f19601f8301169050602081019050919050565b600081519050919050565b600082825260208201905092915050565b600061038b82610392565b9050919050565b600073ffffffffffffffffffffffffffffffffffffffff82169050919050565b6000819050919050565b82818337600083830152505050565b60005b838110156103e95780820151818401526020810190506103ce565b838111156103f8576000848401525b50505050565b7f4e487b7100000000000000000000000000000000000000000000000000000000600052604160045260246000fd5b6000601f19601f8301169050919050565b610447816103b2565b811461045257600080fd5b5056fea2646970667358221220a05118a28f0fe47a76e1d58b50911c3f2c9a261fbe9e7d834494385e9d4b894e64736f6c63430008000033",
  "linkReferences": {},
  "deployedLinkReferences": {}
}