{
  "_format": "hh-sol-artifact-1",
  "contractName": "SwapAgent",
  "sourceName": "contracts/SwapAgent.sol",
  "abi": [
    {
      "inputs": [],
      "stateMutability": "nonpayable",
      "type": "constructor"
    },
    {
      "anonymous": false,
      "inputs": [
        {
          "indexed": true,
          "internalType": "address",
          "name": "user",
          "type": "address"
        },
        {
          "indexed": false,
          "internalType": "uint256",
          "name": "amount",
          "type": "uint256"
        },
        {
          "indexed": false,
          "internalType": "string",
          "name": "targetChain",
          "type": "string"
        }
      ],
      "name": "SwapExecuted",
      "type": "event"
    },
    {
      "inputs": [],
      "name": "owner",
      "outputs": [
        {
          "internalType": "address",
          "name": "",
          "type": "address"
        }
      ],
      "stateMutability": "view",
      "type": "function"
    },
    {
      "inputs": [
        {
          "internalType": "uint256",
          "name": "amount",
          "type": "uint256"
        },
        {
          "internalType": "string",
          "name": "targetChain",
          "type": "string"
        }
      ],
      "name": "swapTokens",
      "outputs": [],
      "stateMutability": "nonpayable",
      "type": "function"
    }
  ],
  "bytecode": "0x608060405234801561001057600080fd5b50336000806101000a81548173ffffffffffffffffffffffffffffffffffffffff021916908373ffffffffffffffffffffffffffffffffffffffff1602179055506104d8806100606000396000f3fe608060405234801561001057600080fd5b50600436106100365760003560e01c80632811c47b1461003b5780638da5cb5b14610057575b600080fd5b610055600480360381019061005091906102c0565b610075565b005b61005f61010c565b60405161006c919061035d565b60405180910390f35b600082116100b8576040517f08c379a00000000000000000000000000000000000000000000000000000000081526004016100af906103d5565b60405180910390fd5b3373ffffffffffffffffffffffffffffffffffffffff167f634d3fd2da100f83549e21005d319459cdf2552f28405042d35b58f45d5e2d878383604051610100929190610472565b60405180910390a25050565b60008054906101000a900473ffffffffffffffffffffffffffffffffffffffff1681565b6000604051905090565b600080fd5b600080fd5b6000819050919050565b61015781610144565b811461016257600080fd5b50565b6000813590506101748161014e565b92915050565b600080fd5b600080fd5b6000601f19601f8301169050919050565b7f4e487b7100000000000000000000000000000000000000000000000000000000600052604160045260246000fd5b6101cd82610184565b810181811067ffffffffffffffff821117156101ec576101eb610195565b5b80604052505050565b60006101ff610130565b905061020b82826101c4565b919050565b600067ffffffffffffffff82111561022b5761022a610195565b5b61023482610184565b9050602081019050919050565b82818337600083830152505050565b600061026361025e84610210565b6101f5565b90508281526020810184848401111561027f5761027e61017f565b5b61028a848285610241565b509392505050565b600082601f8301126102a7576102a661017a565b5b81356102b7848260208601610250565b91505092915050565b600080604083850312156102d7576102d661013a565b5b60006102e585828601610165565b925050602083013567ffffffffffffffff8111156103065761030561013f565b5b61031285828601610292565b9150509250929050565b600073ffffffffffffffffffffffffffffffffffffffff82169050919050565b60006103478261031c565b9050919050565b6103578161033c565b82525050565b6000602082019050610372600083018461034e565b92915050565b600082825260208201905092915050565b7f416d6f756e74206d7573742062652067726561746572207468616e207a65726f600082015250565b60006103bf602083610378565b91506103ca82610389565b602082019050919050565b600060208201905081810360008301526103ee816103b2565b9050919050565b6103fe81610144565b82525050565b600081519050919050565b60005b8381101561042d578082015181840152602081019050610412565b60008484015250505050565b600061044482610404565b61044e8185610378565b935061045e81856020860161040f565b61046781610184565b840191505092915050565b600060408201905061048760008301856103f5565b81810360208301526104998184610439565b9050939250505056fea2646970667358221220f8b24ec7241a1cdf1a5cd1aa7cb942718dd42532e39271bdc17bd87cd1605c5264736f6c63430008110033",
  "linkReferences": {},
  "deployedLinkReferences": {}
}