{
  "_format": "hh-sol-artifact-1",
  "contractName": "SwapContract",
  "sourceName": "contracts/SwapContract.sol",
  "abi": [
    {
      "inputs": [
        {
          "internalType": "address",
          "name": "_swapRouter",
          "type": "address"
        },
        {
          "internalType": "address",
          "name": "_weth",
          "type": "address"
        }
      ],
      "stateMutability": "payable",
      "type": "constructor"
    },
    {
      "inputs": [],
      "name": "WETH",
      "outputs": [
        {
          "internalType": "contract IWETH",
          "name": "",
          "type": "address"
        }
      ],
      "stateMutability": "view",
      "type": "function"
    },
    {
      "inputs": [],
      "name": "owner",
      "outputs": [
        {
          "internalType": "address",
          "name": "",
          "type": "address"
        }
      ],
      "stateMutability": "view",
      "type": "function"
    },
    {
      "inputs": [
        {
          "internalType": "address",
          "name": "token",
          "type": "address"
        },
        {
          "internalType": "uint256",
          "name": "amountOutMin",
          "type": "uint256"
        }
      ],
      "name": "swapETHForTokens",
      "outputs": [],
      "stateMutability": "payable",
      "type": "function"
    },
    {
      "inputs": [],
      "name": "swapRouter",
      "outputs": [
        {
          "internalType": "contract ISwapRouter",
          "name": "",
          "type": "address"
        }
      ],
      "stateMutability": "view",
      "type": "function"
    },
    {
      "stateMutability": "payable",
      "type": "receive"
    }
  ],
  "bytecode": "0x60c0604052604051610abe380380610abe83398181016040528101906100259190610137565b8173ffffffffffffffffffffffffffffffffffffffff1660808173ffffffffffffffffffffffffffffffffffffffff16815250508073ffffffffffffffffffffffffffffffffffffffff1660a08173ffffffffffffffffffffffffffffffffffffffff1681525050336000806101000a81548173ffffffffffffffffffffffffffffffffffffffff021916908373ffffffffffffffffffffffffffffffffffffffff1602179055505050610177565b600080fd5b600073ffffffffffffffffffffffffffffffffffffffff82169050919050565b6000610104826100d9565b9050919050565b610114816100f9565b811461011f57600080fd5b50565b6000815190506101318161010b565b92915050565b6000806040838503121561014e5761014d6100d4565b5b600061015c85828601610122565b925050602061016d85828601610122565b9150509250929050565b60805160a0516108ff6101bf60003960008181610131015281816101b20152818161027f01526104020152600081816101ee0152818161033c015261042601526108ff6000f3fe6080604052600436106100435760003560e01c806351422e971461004f5780638da5cb5b1461006b578063ad5c464814610096578063c31c9c07146100c15761004a565b3661004a57005b600080fd5b610069600480360381019061006491906104e1565b6100ec565b005b34801561007757600080fd5b506100806103dc565b60405161008d9190610530565b60405180910390f35b3480156100a257600080fd5b506100ab610400565b6040516100b891906105aa565b60405180910390f35b3480156100cd57600080fd5b506100d6610424565b6040516100e391906105e6565b60405180910390f35b6000341161012f576040517f08c379a00000000000000000000000000000000000000000000000000000000081526004016101269061065e565b60405180910390fd5b7f000000000000000000000000000000000000000000000000000000000000000073ffffffffffffffffffffffffffffffffffffffff1663d0e30db0346040518263ffffffff1660e01b81526004016000604051808303818588803b15801561019757600080fd5b505af11580156101ab573d6000803e3d6000fd5b50505050507f000000000000000000000000000000000000000000000000000000000000000073ffffffffffffffffffffffffffffffffffffffff1663a9059cbb7f0000000000000000000000000000000000000000000000000000000000000000346040518363ffffffff1660e01b815260040161022b92919061068d565b6020604051808303816000875af115801561024a573d6000803e3d6000fd5b505050506040513d601f19601f8201168201806040525081019061026e91906106ee565b5060006040518061010001604052807f000000000000000000000000000000000000000000000000000000000000000073ffffffffffffffffffffffffffffffffffffffff1681526020018473ffffffffffffffffffffffffffffffffffffffff168152602001610bb862ffffff1681526020013373ffffffffffffffffffffffffffffffffffffffff16815260200161012c4261030c919061074a565b8152602001348152602001838152602001600073ffffffffffffffffffffffffffffffffffffffff1681525090507f000000000000000000000000000000000000000000000000000000000000000073ffffffffffffffffffffffffffffffffffffffff1663414bf389826040518263ffffffff1660e01b8152600401610393919061086b565b6020604051808303816000875af11580156103b2573d6000803e3d6000fd5b505050506040513d601f19601f820116820180604052508101906103d6919061089c565b50505050565b60008054906101000a900473ffffffffffffffffffffffffffffffffffffffff1681565b7f000000000000000000000000000000000000000000000000000000000000000081565b7f000000000000000000000000000000000000000000000000000000000000000081565b600080fd5b600073ffffffffffffffffffffffffffffffffffffffff82169050919050565b60006104788261044d565b9050919050565b6104888161046d565b811461049357600080fd5b50565b6000813590506104a58161047f565b92915050565b6000819050919050565b6104be816104ab565b81146104c957600080fd5b50565b6000813590506104db816104b5565b92915050565b600080604083850312156104f8576104f7610448565b5b600061050685828601610496565b9250506020610517858286016104cc565b9150509250929050565b61052a8161046d565b82525050565b60006020820190506105456000830184610521565b92915050565b6000819050919050565b600061057061056b6105668461044d565b61054b565b61044d565b9050919050565b600061058282610555565b9050919050565b600061059482610577565b9050919050565b6105a481610589565b82525050565b60006020820190506105bf600083018461059b565b92915050565b60006105d082610577565b9050919050565b6105e0816105c5565b82525050565b60006020820190506105fb60008301846105d7565b92915050565b600082825260208201905092915050565b7f53656e642045544820746f207377617000000000000000000000000000000000600082015250565b6000610648601083610601565b915061065382610612565b602082019050919050565b600060208201905081810360008301526106778161063b565b9050919050565b610687816104ab565b82525050565b60006040820190506106a26000830185610521565b6106af602083018461067e565b9392505050565b60008115159050919050565b6106cb816106b6565b81146106d657600080fd5b50565b6000815190506106e8816106c2565b92915050565b60006020828403121561070457610703610448565b5b6000610712848285016106d9565b91505092915050565b7f4e487b7100000000000000000000000000000000000000000000000000000000600052601160045260246000fd5b6000610755826104ab565b9150610760836104ab565b92508282019050808211156107785761077761071b565b5b92915050565b6107878161046d565b82525050565b600062ffffff82169050919050565b6107a58161078d565b82525050565b6107b4816104ab565b82525050565b6107c38161044d565b82525050565b610100820160008201516107e0600085018261077e565b5060208201516107f3602085018261077e565b506040820151610806604085018261079c565b506060820151610819606085018261077e565b50608082015161082c60808501826107ab565b5060a082015161083f60a08501826107ab565b5060c082015161085260c08501826107ab565b5060e082015161086560e08501826107ba565b50505050565b60006101008201905061088160008301846107c9565b92915050565b600081519050610896816104b5565b92915050565b6000602082840312156108b2576108b1610448565b5b60006108c084828501610887565b9150509291505056fea26469706673582212209d93f59c5efa37647ca12bdd3ab076a1c126db43bc85f02390dfa9bb1651ee8e64736f6c63430008110033",
  "linkReferences": {},
  "deployedLinkReferences": {}
}