{
  "_format": "hh-sol-artifact-1",
  "contractName": "SwapContract",
  "sourceName": "contracts/SwapContract.sol",
  "abi": [
    {
      "inputs": [
        {
          "internalType": "uint256",
          "name": "amount",
          "type": "uint256"
        },
        {
          "internalType": "string",
          "name": "network",
          "type": "string"
        }
      ],
      "name": "swapTokens",
      "outputs": [],
      "stateMutability": "nonpayable",
      "type": "function"
    }
  ],
  "bytecode": "0x608060405234801561001057600080fd5b50610272806100206000396000f3fe608060405234801561001057600080fd5b506004361061002b5760003560e01c80632811c47b14610030575b600080fd5b61004a600480360381019061004591906101e0565b61004c565b005b5050565b6000604051905090565b600080fd5b600080fd5b6000819050919050565b61007781610064565b811461008257600080fd5b50565b6000813590506100948161006e565b92915050565b600080fd5b600080fd5b6000601f19601f8301169050919050565b7f4e487b7100000000000000000000000000000000000000000000000000000000600052604160045260246000fd5b6100ed826100a4565b810181811067ffffffffffffffff8211171561010c5761010b6100b5565b5b80604052505050565b600061011f610050565b905061012b82826100e4565b919050565b600067ffffffffffffffff82111561014b5761014a6100b5565b5b610154826100a4565b9050602081019050919050565b82818337600083830152505050565b600061018361017e84610130565b610115565b90508281526020810184848401111561019f5761019e61009f565b5b6101aa848285610161565b509392505050565b600082601f8301126101c7576101c661009a565b5b81356101d7848260208601610170565b91505092915050565b600080604083850312156101f7576101f661005a565b5b600061020585828601610085565b925050602083013567ffffffffffffffff8111156102265761022561005f565b5b610232858286016101b2565b915050925092905056fea264697066735822122012b418bf99066fd026b64f69acdf5bd3331ecd7061278e90976d1cfa28aa9d4664736f6c63430008110033",
  "linkReferences": {},
  "deployedLinkReferences": {}
}