{"contracts/SwapContract.sol":{"SwapContract":{"abi":[{"inputs":[{"internalType":"uint256","name":"amount","type":"uint256"},{"internalType":"string","name":"network","type":"string"}],"name":"swapTokens","outputs":[],"stateMutability":"nonpayable","type":"function"}],"evm":{"bytecode":{"linkReferences":{},"object":"608060405234801561001057600080fd5b50610272806100206000396000f3fe608060405234801561001057600080fd5b506004361061002b5760003560e01c80632811c47b14610030575b600080fd5b61004a600480360381019061004591906101e0565b61004c565b005b5050565b6000604051905090565b600080fd5b600080fd5b6000819050919050565b61007781610064565b811461008257600080fd5b50565b6000813590506100948161006e565b92915050565b600080fd5b600080fd5b6000601f19601f8301169050919050565b7f4e487b7100000000000000000000000000000000000000000000000000000000600052604160045260246000fd5b6100ed826100a4565b810181811067ffffffffffffffff8211171561010c5761010b6100b5565b5b80604052505050565b600061011f610050565b905061012b82826100e4565b919050565b600067ffffffffffffffff82111561014b5761014a6100b5565b5b610154826100a4565b9050602081019050919050565b82818337600083830152505050565b600061018361017e84610130565b610115565b90508281526020810184848401111561019f5761019e61009f565b5b6101aa848285610161565b509392505050565b600082601f8301126101c7576101c661009a565b5b81356101d7848260208601610170565b91505092915050565b600080604083850312156101f7576101f661005a565b5b600061020585828601610085565b925050602083013567ffffffffffffffff8111156102265761022561005f565b5b610232858286016101b2565b915050925092905056fea264697066735822122012b418bf99066fd026b64f69acdf5bd3331ecd7061278e90976d1cfa28aa9d4664736f6c63430008110033","opcodes":"PUSH1 0x80 PUSH1 0x40 MSTORE CALLVALUE DUP1 ISZERO PUSH2 0x10 JUMPI PUSH1 0x0 DUP1 REVERT JUMPDEST POP PUSH2 0x272 DUP1 PUSH2 0x20 PUSH1 0x0 CODECOPY PUSH1 0x0 RETURN INVALID PUSH1 0x80 PUSH1 0x40 MSTORE CALLVALUE DUP1 ISZERO PUSH2 0x10 JUMPI PUSH1 0x0 DUP1 REVERT JUMPDEST POP PUSH1 0x4 CALLDATASIZE LT PUSH2 0x2B JUMPI PUSH1 0x0 CALLDATALOAD PUSH1 0xE0 SHR DUP1 PUSH4 0x2811C47B EQ PUSH2 0x30 JUMPI JUMPDEST PUSH1 0x0 DUP1 REVERT JUMPDEST PUSH2 0x4A PUSH1 0x4 DUP1 CALLDATASIZE SUB DUP2 ADD SWAP1 PUSH2 0x45 SWAP2 SWAP1 PUSH2 0x1E0 JUMP JUMPDEST PUSH2 0x4C JUMP JUMPDEST STOP JUMPDEST POP POP JUMP JUMPDEST PUSH1 0x0 PUSH1 0x40 MLOAD SWAP1 POP SWAP1 JUMP JUMPDEST PUSH1 0x0 DUP1 REVERT JUMPDEST PUSH1 0x0 DUP1 REVERT JUMPDEST PUSH1 0x0 DUP2 SWAP1 POP SWAP2 SWAP1 POP JUMP JUMPDEST PUSH2 0x77 DUP2 PUSH2 0x64 JUMP JUMPDEST DUP2 EQ PUSH2 0x82 JUMPI PUSH1 0x0 DUP1 REVERT JUMPDEST POP JUMP JUMPDEST PUSH1 0x0 DUP2 CALLDATALOAD SWAP1 POP PUSH2 0x94 DUP2 PUSH2 0x6E JUMP JUMPDEST SWAP3 SWAP2 POP POP JUMP JUMPDEST PUSH1 0x0 DUP1 REVERT JUMPDEST PUSH1 0x0 DUP1 REVERT JUMPDEST PUSH1 0x0 PUSH1 0x1F NOT PUSH1 0x1F DUP4 ADD AND SWAP1 POP SWAP2 SWAP1 POP JUMP JUMPDEST PUSH32 0x4E487B7100000000000000000000000000000000000000000000000000000000 PUSH1 0x0 MSTORE PUSH1 0x41 PUSH1 0x4 MSTORE PUSH1 0x24 PUSH1 0x0 REVERT JUMPDEST PUSH2 0xED DUP3 PUSH2 0xA4 JUMP JUMPDEST DUP2 ADD DUP2 DUP2 LT PUSH8 0xFFFFFFFFFFFFFFFF DUP3 GT OR ISZERO PUSH2 0x10C JUMPI PUSH2 0x10B PUSH2 0xB5 JUMP JUMPDEST JUMPDEST DUP1 PUSH1 0x40 MSTORE POP POP POP JUMP JUMPDEST PUSH1 0x0 PUSH2 0x11F PUSH2 0x50 JUMP JUMPDEST SWAP1 POP PUSH2 0x12B DUP3 DUP3 PUSH2 0xE4 JUMP JUMPDEST SWAP2 SWAP1 POP JUMP JUMPDEST PUSH1 0x0 PUSH8 0xFFFFFFFFFFFFFFFF DUP3 GT ISZERO PUSH2 0x14B JUMPI PUSH2 0x14A PUSH2 0xB5 JUMP JUMPDEST JUMPDEST PUSH2 0x154 DUP3 PUSH2 0xA4 JUMP JUMPDEST SWAP1 POP PUSH1 0x20 DUP2 ADD SWAP1 POP SWAP2 SWAP1 POP JUMP JUMPDEST DUP3 DUP2 DUP4 CALLDATACOPY PUSH1 0x0 DUP4 DUP4 ADD MSTORE POP POP POP JUMP JUMPDEST PUSH1 0x0 PUSH2 0x183 PUSH2 0x17E DUP5 PUSH2 0x130 JUMP JUMPDEST PUSH2 0x115 JUMP JUMPDEST SWAP1 POP DUP3 DUP2 MSTORE PUSH1 0x20 DUP2 ADD DUP5 DUP5 DUP5 ADD GT ISZERO PUSH2 0x19F JUMPI PUSH2 0x19E PUSH2 0x9F JUMP JUMPDEST JUMPDEST PUSH2 0x1AA DUP5 DUP3 DUP6 PUSH2 0x161 JUMP JUMPDEST POP SWAP4 SWAP3 POP POP POP JUMP JUMPDEST PUSH1 0x0 DUP3 PUSH1 0x1F DUP4 ADD SLT PUSH2 0x1C7 JUMPI PUSH2 0x1C6 PUSH2 0x9A JUMP JUMPDEST JUMPDEST DUP2 CALLDATALOAD PUSH2 0x1D7 DUP5 DUP3 PUSH1 0x20 DUP7 ADD PUSH2 0x170 JUMP JUMPDEST SWAP2 POP POP SWAP3 SWAP2 POP POP JUMP JUMPDEST PUSH1 0x0 DUP1 PUSH1 0x40 DUP4 DUP6 SUB SLT ISZERO PUSH2 0x1F7 JUMPI PUSH2 0x1F6 PUSH2 0x5A JUMP JUMPDEST JUMPDEST PUSH1 0x0 PUSH2 0x205 DUP6 DUP3 DUP7 ADD PUSH2 0x85 JUMP JUMPDEST SWAP3 POP POP PUSH1 0x20 DUP4 ADD CALLDATALOAD PUSH8 0xFFFFFFFFFFFFFFFF DUP2 GT ISZERO PUSH2 0x226 JUMPI PUSH2 0x225 PUSH2 0x5F JUMP JUMPDEST JUMPDEST PUSH2 0x232 DUP6 DUP3 DUP7 ADD PUSH2 0x1B2 JUMP JUMPDEST SWAP2 POP POP SWAP3 POP SWAP3 SWAP1 POP JUMP INVALID LOG2 PUSH5 0x6970667358 0x22 SLT KECCAK256 SLT 0xB4 XOR 0xBF SWAP10 MOD PUSH16 0xD026B64F69ACDF5BD3331ECD7061278E SWAP1 SWAP8 PUSH14 0x1CFA28AA9D4664736F6C63430008 GT STOP CALLER "},"methodIdentifiers":{"swapTokens(uint256,string)":"2811c47b"}}}}}